S00E00006D61737465722E737265638A
S11300000C9434000C9451000C9451000C94510045
S11300100C9451000C9451000C9451000C94510018
S11300200C9451000C9451000C94A8080C945100A9
S11300300C9451000C9451000C9451000C945100F8
S11300400C9451000C9451000C9451000C945100E8
S11300500C945100E1063507B507BB07C107C70774
S1130060D1077707D707DC0611241FBECFE5D8E0F8
S1130070DEBFCDBF12E0A0E6B0E0E2E2F4E102C0F0
S113008005900D92AA38B107D9F722E0AAE8B2E0A8
S113009001C01D92AD38B207E1F70E94C2030C946F
S11300A00F0A0C940000823419F118F4813439F0E9
S11300B008958334B1F1843409F44CC00895413077
S11300C059F42AB381E090E002C0880F991F6A9521
S11300D0E2F7822B8ABB08952AB381E090E002C044
S11300E0880F991F6A95E2F7809582238ABB089549
S11300F0413059F427B381E090E002C0880F991F82
S11301006A95E2F7822B87BB089527B381E090E0DC
S113011002C0880F991F6A95E2F78095822387BBF6
S11301200895413059F424B381E090E002C0880F6F
S1130130991F6A95E2F7822B84BB089524B381E06A
S113014090E002C0880F991F6A95E2F78095822398
S113015084BB0895413059F421B381E090E002C09A
S1130160880F991F6A95E2F7822B81BB089521B30A
S113017081E090E002C0880F991F6A95E2F78095AC
S1130180822381BB0895823419F118F4813439F043
S113019008958334B1F1843409F44CC00895413096
S11301A059F42BB381E090E002C0880F991F6A953F
S11301B0E2F7822B8BBB08952BB381E090E002C061
S11301C0880F991F6A95E2F7809582238BBB089567
S11301D0413059F428B381E090E002C0880F991FA0
S11301E06A95E2F7822B88BB089528B381E090E0FA
S11301F002C0880F991F6A95E2F78095822388BB15
S11302000895413059F425B381E090E002C0880F8D
S1130210991F6A95E2F7822B85BB089525B381E087
S113022090E002C0880F991F6A95E2F780958223B7
S113023085BB0895413059F422B381E090E002C0B7
S1130240880F991F6A95E2F7822B82BB089522B327
S113025081E090E002C0880F991F6A95E2F78095CB
S1130260822382BB08958234D9F018F4813431F0AA
S11302704DC0833439F18434B9F148C029B381E0E5
S113028090E0062E02C0880F991F0A94E2F730E02E
S11302908223932302C0959587956A95E2F7089582
S11302A026B381E090E0062E02C0880F991F0A94BD
S11302B0E2F730E08223932302C0959587956A95EF
S11302C0E2F7089523B381E090E0062E02C0880F80
S11302D0991F0A94E2F730E08223932302C0959594
S11302E087956A95E2F7089520B381E090E0062EA1
S11302F002C0880F991F0A94E2F730E08223932307
S113030002C0959587956A95E2F7089580E008956F
S1130310823459F018F4813431F00895833439F07B
S1130320843439F008956BBB089568BB089565BBA8
S1130330089562BB0895823461F118F4813441F068
S11303400895833409F446C0843409F464C00895DC
S1130350413099F480B78B7F80BF2AB381E090E06D
S113036002C0880F991F6A95E2F7982F90959223FF
S11303709ABB9BB3892B8BBB08952BB381E090E090
S113038002C0880F991F6A95E2F7809582238BBB80
S11303900895413099F480B78B7F80BF27B381E003
S11303A090E002C0880F991F6A95E2F7982F909504
S11303B0922397BB98B3892B88BB089528B381E017
S11303C090E002C0880F991F6A95E2F78095822316
S11303D088BB0895413099F480B78B7F80BF24B3E4
S11303E081E090E002C0880F991F6A95E2F7982F88
S11303F09095922394BB95B3892B85BB089525B31F
S113040081E090E002C0880F991F6A95E2F7809519
S1130410822385BB0895413099F480B78B7F80BFD8
S113042021B381E090E002C0880F991F6A95E2F73A
S1130430982F9095922391BB92B3892B82BB0895F8
S113044022B381E090E002C0880F991F6A95E2F719
S11304508095822382BB0895E199FECF9FBB8EBB1A
S1130460E09A8DB30895E199FECF4115510591F0BD
S1130470460F571FFB019C01261B370BB9019B013B
S11304802E0F3F1F3FBB2EBBE09A9DB39193E41701
S1130490F507A9F70895E199FECF9FBB8EBBE09ABB
S11304A08DB3861719F06DBBE29AE19A0895411550
S11304B05105C9F0460F571FFB019C01261B370B42
S11304C0B901E199FECF9B012E0F3F1F3FBB2EBB0D
S11304D0E09A2DB39191291719F09DBBE29AE19A04
S11304E0E417F50771F7089541E060E084E40E94A1
S11304F0530041E061E084E40E94530041E062E083
S113050084E40E94530041E063E084E40E945300C9
S113051040E064E084E40E94530040E065E084E449
S11305200E94530040E066E084E40E94530040E0EF
S113053067E084E40E94530041E064E084E40E94A4
S11305409B0141E065E084E40E949B0141E066E098
S113055084E40E949B0141E067E084E40E949B01E3
S11305600895EF92FF920F931F93CF93DF93CDB72C
S1130570DEB760970FB6F894DEBF0FBECDBF80E143
S1130580E0E6F0E0DE01119601900D928A95E1F724
S1130590E12CF12C0FEF41E060E084E40E94C30001
S11305A041E061E084E40E94C30041E062E084E44D
S11305B00E94C30041E063E084E40E94C3008FE32F
S11305C09CE90197F1F700C0000040E06E2D84E43F
S11305D00E94C30010E064E0610F84E40E943301D0
S11305E081110FC0F701EE0FFF1FEE0FFF1F81E017
S11305F090E08C0F9D1FE80FF91FE10FF11D0081A2
S113060003C01F5F143039F79FEFE91AF90A84E039
S1130610E816F10409F0BFCF802F60960FB6F89466
S1130620DEBF0FBECDBFDF91CF911F910F91FF9021
S1130630EF90089541E060E082E40E94C3008FE9F6
S11306409FE00197F1F700C0000040E060E082E421
S11306500E94C3008FE99FE00197F1F700C00000FA
S11306600895682F81E40E94880140E061E082E4FB
S11306700E94C3000E941A03089541E060E081E4EF
S11306800E94530041E061E081E40E94530041E094
S113069062E081E40E94530041E063E081E40E944F
S11306A0530041E064E081E40E94530041E065E0CE
S11306B081E40E94530041E066E081E40E9453001B
S11306C041E067E081E40E94530041E060E082E49D
S11306D00E94530041E062E082E40E94530041E042
S11306E061E082E40E94530040E062E082E40E9400
S11306F0C30088E30E94310381E00E9431038EE04D
S11307000E9431038FE19EE40197F1F700C00000DD
S11307100895682F81E40E94880141E061E082E449
S11307200E94C3000E941A030895CF93DF93EC0143
S11307308881882331F021960E948903899181114F
S1130740FBCFDF91CF91089581E00E94310308959A
S1130750813019F48FE7860F06C0823019F48FEBCD
S1130760860F01C080E80E943103089541E00E9491
S11307705300089541E00E94C300089540E00E94A0
S1130780C3000895CF93DF93CDB7DEB728970FB694
S1130790F894DEBF0FBECDBF60E083E40E94B603D1
S11307A061E083E40E94B60362E083E40E94B6033E
S11307B00E943D030E9474020E94DD0980E790E0DC
S11307C00E94950361E082E00E94A80381E890E022
S11307D00E9495032FEF39E688E121503040804094
S11307E0E1F700C000000E94A40380E091E00E94B1
S11307F02C02813039F481E091E00E942C02813096
S113080009F4CAC08DE890E00E94950361E082E09B
S11308100E94A80387E990E00E9495039FEFE9E610
S1130820F8E19150E040F040E1F700C000000E9480
S1130830A40382EA90E00E94950361E082E00E94B2
S1130840A80381EB90E00E9495038FEF89838A834C
S11308508B838C839E012F5F3F4F790169011CE0DC
S11308600E94B1028F3FE1F3F60181936F010E9470
S11308708903FFEF22E537E0F15020403040E1F7F3
S113088000C00000612F82E00E94A8038AE20E9457
S113089089038FEF90E7E2E081509040E040E1F778
S11308A000C000001F5F1031D9F644E050E0BE01E3
S11308B06F5F7F4F82E091E00E94570261E080E029
S11308C091E00E944B020E94A4038DEB90E00E94F1
S11308D09503FFEF24E33CE0F15020403040E1F782
S11308E000C000000E94A40388EC90E00E949503DD
S11308F061E082E00E94A80387ED90E00E949503E6
S11309001CE00E94B1028F3FE1F3F70181937F0164
S11309100E948903FFEF22E537E0F1502040304088
S1130920E1F700C00000612F82E00E94A8038AE280
S11309300E9489038FEF90E7E2E081509040E0400D
S1130940E1F700C000001F5F1031D9F644E050E029
S1130950BE016F5F7F4F86E091E00E94570261E025
S113096081E091E00E944B020E94A4038DEB90E091
S11309700E949503FFEF24E33CE0F1502040304017
S1130980E1F700C000000E94A40360E08AE091E067
S11309900E944B02C12C05C08AE091E00E942C0207
S11309A0C82EF12C33243A940F2EF2E39F2EF02D0F
S11309B0D32C0F2EFAE0AF2EF02D0F2EF9E0BF2E20
S11309C0F02D80918A02813001F50E94FF09109276
S11309D08C0210928B0210928A0261E083E40E94DE
S11309E0BE0360E083E40E94BE030E94A40383EE7E
S11309F090E00E9495038FEF99E6E8E181509040E2
S1130A00E040E1F700C0000002C0F110B3C100E013
S1130A10132DF1E0CF1227C00E94A40383EF90E0CE
S1130A200E94950361E082E00E94A80381E091E0C6
S1130A300E94950362E083E40E94BA032AEA36EE38
S1130A4086E991E02150304080409040D9F7000081
S1130A5062E083E40E94BE0360E08AE091E00E94C9
S1130A604B0200E0C12C0E94A40381E191E00E94AA
S1130A70950361E082E00E94A8038FE191E00E9467
S1130A8095031F3F29F40E94B102182F8F3FD9F319
S1130A9080ED810F823088F00E94A4038FE291E000
S1130AA00E949503EFEFF9E628E1E150F040204081
S1130AB0E1F700C000001D2DACCFDD82DE82DF82B5
S1130AC0D886D982DA82DB82DC82103321F01133BA
S1130AD009F4A6C04BC1892C801A0E94A4038CE39C
S1130AE091E00E94950361E082E00E94A80387E4FC
S1130AF091E00E9495033FEF81EE94E031508040F5
S1130B009040E1F700C000007E01E5E0EE0EF11C2C
S1130B101CE00E94B1028F3FE1F3F70181937F0152
S1130B200E948903FFEF22E537E0F1502040304076
S1130B30E1F700C00000612F82E00E94A8038AE26E
S1130B400E9489038FEF90E7E2E081509040E040FB
S1130B50E1F700C000001F5F1031D9F644E050E017
S1130B60BE016F5F7F4F82E091E00E94330244E058
S1130B70BE016F5F7F4FCE0105960E94BF08813092
S1130B8021F50E94A40383E591E00E94950361E0AE
S1130B9082E00E94A8038CE391E00E949503FFEF9A
S1130BA024E33CE0F15020403040E1F700C0000075
S1130BB060E083E40E94BA030E94E9090E94A4034E
S1130BC000E01D2DFF24F394D2C00F5F0E94A40304
S1130BD08EE591E00E94950361E082E00E94A80303
S1130BE089E691E00E949503882D0E9489038FEF86
S1130BF099E6E8E181509040E040E1F700C0000050
S1130C000E94A4038A94033008F467CF61E08AE069
S1130C1091E00E944B021D2DCC24C394F12CA7C05B
S1130C20892C801A0E94A40385E791E00E94950311
S1130C3061E082E00E94A80380E891E00E949503AD
S1130C40FFEF21EE34E0F15020403040E1F700C0E6
S1130C5000007E0185E0E80EF11C1CE00E94B10258
S1130C608F3FE1F3F70181937F010E948903FFEF36
S1130C7022E537E0F15020403040E1F700C00000A9
S1130C80612F82E00E94A8038AE20E9489038FEF09
S1130C9090E7E2E081509040E040E1F700C00000BE
S1130CA01F5F1031D9F644E050E0BE016F5F7F4F03
S1130CB086E091E00E94330244E0BE016F5F7F4F03
S1130CC0CE0105960E94BF08813029F50E94A40335
S1130CD083E591E00E94950361E082E00E94A8030D
S1130CE085E791E00E949503FFEF24E33CE0F15097
S1130CF020403040E1F700C0000061E083E40E943E
S1130D00BA030E94E9090E94A40300E01D2D68941F
S1130D10FF24F1F82CC00F5F0E94A4038CE891E03B
S1130D200E94950361E082E00E94A80389E691E0B5
S1130D300E949503882D0E9489038FEF99E6E8E1CC
S1130D4081509040E040E1F700C000000E94A403FD
S1130D508A94033008F466CF61E08AE091E00E944F
S1130D604B021D2DCC24C394F12C01C0F12CFF2087
S1130D7009F44FCE01E00F2EF7E05F2EF02D6894BA
S1130D80882483F80F2EF6E0EF2EF02D0F2EF3E0DB
S1130D907F2EF02D6894662462F80F2EF5E04F2E16
S1130DA0F02DA6C1FA013197EA30F10508F0A4C18B
S1130DB0E65DFF4F0C94090A882309F4FEC0082D50
S1130DC097C10E94A40387E991E00E94950361E022
S1130DD082E00E94A803F1E0FF1205C087EA91E0D7
S1130DE00E94950307C022E0F21204C087EB91E051
S1130DF00E9495038F2D0E94E108182F3FEF80E792
S1130E0092E0315080409040E1F700C0000011337F
S1130E1009F476C1123309F475C1133309F474C1AA
S1130E20143341F4E2E0FE1609F470C1F1E0FF125C
S1130E307FC16EC11F3F99F00E94A40387EC91E02B
S1130E400E9495032FEF34E38CE021503040804022
S1130E50E1F700C000001153143008F449C1809137
S1130E608A02882309F4ADCF43C10E94A40383ED11
S1130E7091E00E94950361E082E00E94A80386EE5F
S1130E8091E00E9495038F2D0E94E108182F9FEF97
S1130E90E0E7F2E09150E040F040E1F700C00000EC
S1130EA0813309F437C1823309F436C1833309F439
S1130EB035C1843309F434C18F3F99F00E94A403EF
S1130EC087EC91E00E9495032FEF34E38CE02150EE
S1130ED030408040E1F700C000001153143008F4A2
S1130EE007C180918A02882309F4BFCF01C10E94FF
S1130EF0A40387EF91E00E94950361E082E00E94E1
S1130F00A8038AE092E00E9495038F2D0E94E108D5
S1130F10182F9FEFE0E7F2E09150E040F040E1F756
S1130F2000C00000813309F4FDC0823309F4FCC021
S1130F30803309F4FBC08F3F99F00E94A40387EC2F
S1130F4091E00E9495032FEF34E38CE02150304070
S1130F508040E1F700C000001053133008F4C8C00B
S1130F6080918A02882319F2C3C06F2D872D0E94B5
S1130F70000901E0BDC06F2D862D0E94000901E02B
S1130F80B7C06F2D842D0E94000901E0B1C06F2D00
S1130F908E2D0E94000992E0F91609F4A2C002E025
S1130FA0A7C06F2D852D0E94000902E0A1C06F2DFE
S1130FB08B2D0E940009082D9BC00E94A4038BE185
S1130FC092E00E9495038FED0E94890383E40E94BE
S1130FD089036BE081E00E94A803EFEFF1EE24E0C7
S1130FE0E150F0402040E1F700C000008F2D0E9446
S1130FF0E1083FE79AE1E6E031509040E040E1F754
S113100000C0000090918A02913009F46CC010ED88
S1131010180F1A3080F00E94A40387EC91E00E941C
S11310209503FFEF24E33CE0F15020403040E1F72A
S113103000C000004FC00E9489038F2D0E94E10868
S11310409FE7EAE1F6E09150E040F040E1F700C0AC
S1131050000090918A02913009F447C000ED080F16
S11310600A3080F00E94A40387EC91E00E9495036B
S11310702FEF34E38CE0215030408040E1F700C092
S1131080000028C00E948903110F812F880F880F48
S1131090180F010F80E40E94E4099FEFE1EEF4E0F1
S11310A09150E040F040E1F700C00000802F0E9422
S11310B0E4090E94A40389E292E00E9495032FEFC1
S11310C034E38CE0215030408040E1F700C0000060
S11310D001110DC080918A02882309F46ECF082D76
S11310E007C001E005C0082D03C0082D01C0082D6C
S11310F080918A02402F50E0813009F053CE61CCB8
S1131100072DF6CF062DF4CF042DF2CF0E2DF0CF00
S113111002E0EECF0E2DECCF052DEACF082DE8CF5F
S113112001E0E6CF0A2DE4CF0B2DE2CF02E0E0CFC1
S11311300E94A40387EC91E00E9495039FEFE4E3EF
S1131140FCE09150E040F040E1F700C00000D0CF57
S11311501F920F920FB60F9211248F939F93809139
S11311608B0290918C02019690938C0280938B0257
S11311709F918F910F900FBE0F901F90189544234D
S1131180D1F0FC013081FB012081321316C0FC0137
S11311903196DB011196415050E04F5F5F4F480F8D
S11311A0591F04C021919D91291309C0E417F50723
S11311B0C9F781E0089581E0089580E0089580E012
S11311C00895CF93C82F80918B0290918C02883B15
S11311D09B4010F0C13049F080918B0290918C02B9
S11311E0803D974038F0C23029F481E080938A0230
S11311F08FEF04C00E94B1028F3F29F3CF9108956D
S11312008F929F92AF92BF92CF92DF92EF92FF9212
S11312100F931F93CF93DF93D82FE62E00E0F12C8A
S113122010E00F2EF3E18F2EF02D0F2EF5E19F2EFF
S1131230F02D0F2EF4E1AF2EF02D0F2EF6E1BF2E80
S1131240F02D0F2EF1E1CF2EF02D0F2EF2E1DF2E37
S1131250F02D0E94A403D53011F128F4D33049F0C5
S1131260D43091F047C0D73081F120F1D930C1F1A9
S113127041C08AE392E00E94950301E30F2EF1E25C
S1131280FF2EF02D1C2D36C083E492E00E949503BE
S113129002E30F2EF2E2FF2EF02D1D2D2BC08CE465
S11312A092E00E94950303E30F2EF3E2FF2EF02D4C
S11312B0182D20C085E592E00E94950304E30F2ECB
S11312C0F4E2FF2EF02D1A2D15C08EE592E00E9457
S11312D0950305E30F2EF5E2FF2EF02D192D0AC01C
S11312E084E692E00E94950306E30F2EF6E2FF2EB9
S11312F0F02D1B2D812F0E94E4092FEF80E792E04F
S1131300215080409040E1F700C000008FEF0E9420
S1131310E409813029F481E792E00E94950304C036
S113132084E792E00E94950361E082E00E94A803B2
S113133088E792E00E9495038E2D0E94E108C82F51
S11313402FEF80E792E0215080409040E1F700C009
S11313500000C13321F48F2D0E94E40921C0C2335F
S113136021F4802F0E94E4091BC0CF3FA1F0C033B9
S1131370B9F00E94A40387EC91E00E9495032FEF3B
S113138084E39CE0215080409040E1F700C00000DD
S1131390C053C33028F080918A02882309F459CFBE
S11313A0DF91CF911F910F91FF90EF90DF90CF903D
S11313B0BF90AF909F908F90089587B3806B87BB49
S11313C08DB181658DB908958FB9779BFECF8FB1AB
S11313D008958EE48CBF83B7886083BF83B78F7B07
S11313E083BF83B7816083BF83B78D7F83BF83B798
S11313F0846083BF789489B7826089BF089583B776
S11314008E7F83BF83B78D7F83BF83B78B7F83BF7B
S11314100895EE0FFF1F0590F491E02D0994F894C0
S1051420FFCFF8
S11314223738392F3435362A3132332D41303D2B7A
S113143257656C636F6D6520746F20736D61727490
S113144200686F6D652073797374656D004C6F6706
S1131452696E20666F720066697273742074696DB6
S113146265005365742041646D696E207061737305
S11314720041646D696E20706173733A0050617348
S113148273205361766564005365742047756573F0
S113149274205061737300477565737420506173CF
S11314A2733A0053657373696F6E2054696D656F87
S11314B27574004C6F67696E20626C6F636B656450
S11314C20077616974203230207365636F6E6473D0
S11314D20053656C656374206D6F6465203A003057
S11314E23A41646D696E20313A47756573740057E9
S11314F2726F6E6720696E7075742E0041646D6937
S11315026E206D6F646500456E7465722050617360
S1131512733A00526967687420706173730057727A
S11315226F6E672050617373005472696573206C27
S11315326566743A004775657374206D6F6465005F
S1131542456E74657220706173733A0057726F6EE0
S113155267207061737300313A526F6F6D312032BC
S11315623A526F6F6D3200333A526F6F6D332034DB
S11315723A4D6F72652000333A526F6F6D332034E7
S11315823A526F6F6D340057726F6E6720696E70D6
S1131592757400313A526F6F6D3420202020323A34
S11315A2545620202000333A41697220436F6E64FE
S11315B22E343A52455400313A5365742074656DA1
S11315C270657261747572652000323A436F6E748D
S11315D2726F6C2020303A52455400536574207463
S11315E2656D702E3A5F5F200054656D706572619F
S11315F2747572652053656E7400526F6F6D31207D
S1131602533A00526F6F6D3220533A00526F6F6D2E
S11316123320533A00526F6F6D3420533A005456BC
S113162220533A0041697220436F6E642E20533A6C
S1131632004F4E004F464600312D4F6E20322D4F43
S10D1642666620302D524554000066
S9030000FC
